S01100004D617273526F7665722E7372656372
S11300002BC1000047C1000045C1000043C10000EE
S113001041C100003FC100003DC100003BC10000E0
S113002039C100000C942B0935C100000C94C2089E
S113003031C100002FC100002DC100002BC1000000
S113004029C1000027C1000025C1000023C1000010
S113005021C100001FC100001DC100001BC1000020
S113006019C1000017C1000015C1000013C1000030
S113007011C100000FC100000DC100000BC1000040
S113008009C1000007C1000005C10000CF02E7025A
S1130090E702E702C002E702E702E702E702E7023B
S11300A0BB02DE02E702E702DC02E702B302DA0285
S11300B00664EC1B3C04BC163E3BE5B93CC93C372A
S11300C0C29E5A3D660498083EEA69AAAA3E000008
S11300D000803F07634236B79BD8A71A3968561881
S11300E0AEBAAB558C1D3CB7CC5763BD6DEDFD75F9
S11300F03EF6177231BF000000803F08000000BECA
S1130100922449123EABAAAA2ABECDCCCC4C3E00C6
S1130110000080BEABAAAAAA3E00000000BF0000F7
S113012000803F0000000000084178D3BB4387D122
S1130130133D190E3CC3BD4282AD2B3E68EC827662
S1130140BED98FE1A93E4C80EFFFBE01C4FF7F3FC3
S11301500000000000006E616E00696E66000040E1
S11301607A10F35A00A0724E18090010A5D4E800C2
S113017000E87648170000E40B54020000CA9A3BDA
S1130180000000E1F5050000809698000000404260
S11301900F000000A08601000000102700000000EE
S11301A0E803000000006400000000000A000000F2
S11301B000000100000000002C76D888DC674F089E
S11301C023DFC1DFAE59E1B1B796E5E3E453C63AA4
S11301D0E651997696E8E6C28426EB898C9B62ED1B
S11301E0407C6FFCEFBC9C9F40F2BAA56FA5F490D5
S11301F0055A2AF75C936B6CF9676DC11BFCE0E44C
S11302000D47FEF520E6B500D0ED902E03009435A1
S113021077050080841E080000204E0A000000C8F4
S11302200C333333330F986E12831141EF8D211445
S1130230893BE65516CFFEE6DB18D1844B381BF715
S11302407C1D901DA4BBE424203284725E228100B4
S1130250C9F124ECA1E53D2711241FBECFEFD0E165
S1130260DEBFCDBF11E0A0E0B1E0E2ECF7E200E0D8
S11302700BBF02C007900D92A036B107D9F721E059
S1130280A0E6B1E001C01D92A53FB207E1F7A2D1FB
S11302900C94DF13B5CE80EC87B987E886B908954E
S11302A097B18F71982B97B9369A3699FECF84B14E
S11302B095B108951F93CF93DF9313E0C0E0D0E08E
S11302C082E0EEDFC80FD91F1150D1F7BE01882795
S11302D077FD8095982F0E94420A20E030E040E4A8
S11302E050E40E94A70926E636E646E95FE30E9449
S11302F0310B9B01AC0160E076E68BEF96E40E9443
S1130300A7090E940F0ACB01DF91CF911F91089595
S1130310DE9A90E08AD7DE988BB3807F8BBB0895FA
S1130320CF93C82FDC988BB39C2F92959F70892B09
S11303308BBB82E0EDDF8BB3CF70C82BCBBB82E0ED
S1130340E7DFDC9ACF91089581E0EADF81E090E075
S11303506CC7089582E0E4CF08958FEF8ABB83E0F1
S11303608BBBDE9A81E090E060D7DE9885E090E078
S11303705CD7DE9A81E090E058D7DE98DE9A81E07F
S113038090E053D7DE9882E08BBB81E0C1DF8BB372
S11303908BBB81E0BDDF8BB38E608BBB81E0B8DFAC
S11303A08BB38BBB81E0B4DF8BB386608BBB81E006
S11303B0AFDF8BB38BBB81E0ABDFD89A81E0A8DFE2
S11303C0DC9AC8CF089580ECABCF089584E9A8CF18
S11303D0089584EDA5CF0895CF93C82F8BB39C2F98
S11303E092959F70892B8BBB81E092DF8BB3CF708A
S11303F0C82BCBBB81E08CDFCF910895CF92DF92E5
S1130400EF92FF920F931F93CF93DF93CDB7DEB795
S1130410C155D1090FB6F894DEBF0FBECDBFFE01A2
S1130420E45AFF4F419151919F0161E570E0CE0183
S113043001960E944913BE016F5F7F4F80E691E0F1
S11304400E94CE12892B09F443C0BE016F5F7F4F17
S113045080E691E00E94D71277DF9E012F5F3F4F25
S1130460690100E010E00F2EF4E1EF2EF12CF02DE5
S113047027C08A3051F4C801B7010E947610F701F1
S1130480E81BF90B0E0F1F1F03C0A6DF0F5F1F4FE2
S1130490C801B7010E947610892B91F4C801B701F5
S11304A00E9476106230710541F06330710539F0B5
S11304B06130710529F487DF03C088DF01C089DF5B
S11304C0F60181916F01882319F0003511058CF232
S11304D0CF5ADF4F0FB6F894DEBF0FBECDBFDF910A
S11304E0CF911F910F91FF90EF90DF90CF900895DF
S11304F053D533DFD0DE7CD5F4D53EC60895CF93F3
S1130500ADD5C82FABD52C2F30E0A901440F551F12
S1130510220F331F220F331F220F331F240F351FC7
S1130520A901480F511DCA01CF91089526E031E079
S113053048E051E062E070E082E090E031D482E093
S113054090E05FC40895CF93DF93EC01462F50E011
S1130550FA01E256F109E231F10508F038C0EA5B2C
S1130560FF4F0C948910CBDF66277727681B790B24
S1130570CE013AD02CC0C3DFBC01CE0135D027C098
S1130580BEDFBC01660F771F880F991F880F991F64
S1130590880F991F680F791FCE0102D118C0AFDFF1
S11305A026EFAC012403B001259F700D1124CE0168
S11305B0F7D00DC03AD20BC043D109C08DE091E011
S11305C09F938F931BDF0F900F90B0DFFECFDF91CF
S11305D0CF910895A3D3EC018BDF40D5682FCE01D2
S11305E0B2DFCE011ED4F9CFEF92FF920F931F9387
S11305F0CF93DF93EC017B0114D41E141F048CF4FD
S11306006CE97FEF84E690E0B4D300E010E0CE0123
S113061008D48E859F85080F191F0E151F05BCF37E
S113062012C064E670E08CE99FEFA3D3FF205CF472
S113063000E010E0CE01F5D38E859F85080F191FC9
S1130640E016F106BCF360E070E080E090E091D346
S1130650CE01E7D382E390E0E8D5DF91CF911F91FB
S11306600F91FF90EF900895FC01868D978D8D3248
S1130670910598F020A131A12931310508F43FC03A
S1130680448D558D4931510508F43EC062A173A1D2
S11306906D32710508F438C013C089E191E0B4D417
S11306A083E008958BE191E0AFD483E0089582A1C3
S11306B093A18D9710F581E391E0A6D483E008958A
S11306C0893D914058F4253D310540F4493C51059C
S11306D050F46337714060F484E0089583E291E05C
S11306E093D482E0089587E291E08ED482E0089565
S11306F08BE291E089D482E0089583E008958FE24B
S113070091E082D483E00895848D958D499778F69D
S1130710C9CFCF93DF93EC018881982F937089F030
S113072081FF03C089E391E06FD4888180FF03C017
S11307308DE391E069D46EEC7FEFCE0131D080E09F
S11307402CC08B8181110AC08C8181110BC09A81CC
S113075091110BC09D8191110CC01DC081E491E0E9
S113076053D413C09A81992321F083E491E04CD4AB
S11307700CC0882321F088E491E046D406C08D8122
S1130780882319F08AE491E03FD46EEC7FEFCE0128
S113079007D081E002C0CE0167DFDF91CF910895D9
S11307A0EF92FF920F931F93CF93DF93EC017B01A2
S11307B016161706ECF466E970E086E990E0D9D2E3
S11307C000E010E0CE01A5DF843041F060E070E08D
S11307D080E090E0CED2CE0124D31CC0CE0121D340
S11307E08C859D85080F191F0E151F055CF31DC010
S11307F0772384F468E37FEF88E39FEFBAD200E0C5
S113080010E0CE010ED38C859D85080F191FE016CC
S1130810F106BCF360E070E080E090E0AAD2CE0183
S113082000D382E390E001D504C08FE491E0ECD3DF
S1130830F1CFDF91CF911F910F91FF90EF90089529
S11308400F931F93CF93DF938C0166E970E086E9E1
S113085090E08FD2C0E0D0E0C801E3D2F8018485F3
S11308609585C80FD91FC436D105B4F360E070E094
S113087080E090E07ED2DF91CF911F910F91089597
S1130880CF92DF92EF92FF92CF93DF93EB01682F29
S113089070E080E090E0F6D520E030E040E05FE3F7
S11308A07DD627EA37EE4EE85CE378D626D76B018F
S11308B07C01BE01882777FD8095982FE3D59B01A5
S11308C0AC01C701B6016AD69B01AC01DCD4DF914F
S11308D0CF91FF90EF90DF90CF900895EF92FF9229
S11308E00F931F93CF93DF9380910A018823D1F054
S11308F08091E8019091E9018535910514F41092F5
S11309000A018091DA019091DB019093B601809302
S1130910B5018091EA019091EB019093B401809329
S1130920B30156C08091E8019091E90186359105A3
S11309300CF446C0E090DA01F090DB010091B501BF
S11309401091B601C091B301D091B4018091B1016D
S11309509091B201C80FD91FDD230CF42196D595CF
S1130960C7956C2F7D2F8E2D801B8ADF40910B0144
S1130970242F30E021503109F901EE0FFF1FEE0F53
S1130980FF1FEA53FE4F6083718382839383F901CF
S1130990EF53FE4FC083F901EE0FFF1FE954FE4FE2
S11309A00E0D1F1D112314F40F5F1F4F159507958E
S11309B0118300834F5F40930B0181E080930A0110
S11309C08091EA019091EB019093B2018093B1017F
S11309D0DF91CF911F910F91FF90EF900895CF93E6
S11309E0DF931092DC011092DD011092DE0110926F
S11309F0DF0181E080930B011092DB011092DA0198
S1130A00E6ECF1E0C1ECD1E0A7EBB1E08AED91E0D6
S1130A10119211921192119219921D921D92E8173E
S1130A20F907B1F7DF91CF910895CF92DF92EF925A
S1130A30FF920F931F93CF93DF93CDB7DEB7C456C6
S1130A40D1090FB6F894DEBF0FBECDBF5AD3909331
S1130A50DB018093DA01843B91050CF052C00F2E28
S1130A60F4E6CF2ED12CF02D0F2EF4E5EF2EF1E08D
S1130A70FF2EF02D8E010F5F1F4F81E019D35AD343
S1130A809093EB018093EA0115DC9093E901809344
S1130A90E80137D38093DA019093DB012091E801D8
S1130AA03091E901253631053CF42091EA01309179
S1130AB0EB012536310524F0D092EB01C092EA0116
S1130AC02091EB012F932091EA012F939F938F9311
S1130AD0FF92EF921F930F930E941B13C80194D2AD
S1130AE0FDDE8AE090E0A1D30FB6F894DEBF0FBE1E
S1130AF0CDBF8091DA019091DB01843B91050CF428
S1130B00BCCFE6ECF1E083818F9382818F93818166
S1130B108F9380818F930F2EFAE5EF2EF1E0FF2E55
S1130B20F02DFF92EF928E010F5F1F4F1F930F93D3
S1130B300E941B13C80168D2EAECF1E083818F9311
S1130B4082818F9381818F9380818F93FF92EF9223
S1130B501F930F930E941B13C80156D2EEECF1E0D1
S1130B6083818F9382818F9381818F9380818F93EF
S1130B70FF92EF921F930F930E941B13C80144D25C
S1130B80E2EDF1E083818F9382818F9381818F9352
S1130B9080818F93FF92EF921F930F930E941B13F8
S1130BA00FB6F894DEBF0FBECDBFC8012DD2E6ED5F
S1130BB0F1E083818F9382818F9381818F938081F0
S1130BC08F93FF92EF921F930F930E941B13C80100
S1130BD01BD28091C1011F928F930F2EF7E5EF2E48
S1130BE0F1E0FF2EF02DFF92EF921F930F930E94DE
S1130BF01B13C80109D28091C2011F928F93FF92E7
S1130C00EF921F930F930E941B13C801FDD1809193
S1130C10C3011F928F93FF92EF921F930F930E9431
S1130C201B13C801F1D18091C4011F928F93FF92CD
S1130C30EF921F930F930E941B130FB6F894DEBF1D
S1130C400FBECDBFC801E0D18091C5011F928F9323
S1130C50FF92EF921F930F930E941B13C801D4D1EC
S1130C60E7EBF1E081818F9380818F93FF92EF9284
S1130C701F930F930E941B13C801C6D1E9EBF1E047
S1130C8081818F9380818F93FF92EF921F930F93B3
S1130C900E941B13C801B8D1EBEBF1E081818F9363
S1130CA080818F93FF92EF921F930F930E941B13E7
S1130CB0C801AAD1EDEBF1E081818F9380818F93FC
S1130CC0FF92EF921F930F930E941B13C8019CD1B4
S1130CD0EFEBF1E081818F9380818F93FF92EF920C
S1130CE01F930F930E941B130FB6F894DEBF0FBE21
S1130CF0CDBFC80189D180E0B5D171DECC59DF4FB9
S1130D000FB6F894DEBF0FBECDBFDF91CF911F9118
S1130D100F91FF90EF90DF90CF90089564E370E01F
S1130D2081E090E00C94A3100895EBE9F0E0908149
S1130D3095FFFDCF80939C0008950F931F93CF934D
S1130D40DF93082F162FD42FC22F8BE8EEDF112349
S1130D5029F081E0011103C080E001C080E0E5DFFB
S1130D608D2FE3DF8C2FE1DFDF91CF911F910F9166
S1130D7008950F931F93CF93DF93182F092FC62F36
S1130D80D72F81E9D2DF802FD0DF812FCEDF8D2FC7
S1130D90CCDF8C2FCADFDF91CF911F910F91089583
S1130DA0AF92BF92CF92DF92EF92FF920F931F9375
S1130DB0CF93DF93C82F7B016A01A22EB32E8CE858
S1130DC0B4DF8C2FB2DF8E2DB0DF1E141F0474F439
S1130DD0E6010A2D1B2DEC0CFD1C8991A6DFF80100
S1130DE081918F01A2DFCE15DF05B9F7DF91CF9195
S1130DF01F910F91FF90EF90DF90CF90BF90AF9035
S1130E000895CF93C82F8DE890DF8C2F8EDFCF917C
S1130E100895EBE9F0E080818823ECF780919C0051
S1130E200895EF92FF920F931F93CF93DF937C016A
S1130E3080919B00882344F4ACE9B0E0EBE9F0E056
S1130E408C9180818823E4F38EE86FDF86E06DDF88
S1130E50E70187010C5C1F4FDCDF8993C017D107C2
S1130E60D9F7F701848590E0982F88272585820F8C
S1130E70911D95878487868590E0982F88272785FC
S1130E80820F911D97878687818990E0982F882704
S1130E902289820F911D928B818B838990E0982FF8
S1130EA088272489820F911D948B838B868990E0F7
S1130EB0982F88272789820F911D978B868B808D89
S1130EC090E0982F8827218D820F911D918F808F1C
S1130ED0828D90E0982F8827238D820F911D938F08
S1130EE0828F848D90E0982F8827258D820F911D05
S1130EF0958F848F868D90E0982F8827278D820F79
S1130F00911D978F868F80A190E0982F882721A12B
S1130F10820F911D91A380A382A190E0982F88272E
S1130F2023A1820F911D93A382A382A590E021A502
S1130F3030E0322F2227280F391F36A325A320A9FA
S1130F4030E0322F2227820F931F95A784A782A90E
S1130F5090E0982F882723A9820F911D97A786A731
S1130F6084A990E0982F882725A9820F911D91AB21
S1130F7080AB86A990E0982F882727A9820F911D1E
S1130F8093AB82AB8FE090E050D1DF91CF911F9172
S1130F900F91FF90EF9008950F931F93CF93DF93DA
S1130FA0EC0109E910E080E1F801808388E1809395
S1130FB09A0086E080939D0080E8B7DE81E8B5DE84
S1130FC088E0B3DE84E690E030D181E2F8018083EA
S1130FD084E8ABDE2FEF47E061E081E0AEDECE01D6
S1130FE020DFCE011EDFDF91CF911F910F91089575
S1130FF01092900082E289B988E18AB98EE08093E8
S1131000950082E08BB90895EF92FF920F931F939E
S1131010CF93DF93FC0101900020E9F731977F0122
S1131020E81AF90A82F08C01C0E0D0E05D9BFECFA3
S1131030F80181918F018CB981E090E0F6D021967E
S1131040EC16FD069CF78AE08CB98DE08CB9DF9133
S1131050CF911F910F91FF90EF9008955F9BFECF6A
S11310608CB10895CF93DF93C82FD0E0BE018827B9
S113107077FD8095982F06D221E73DE344E951E4BA
S11310808DD220E030E04AE754E4FDD0CDD1709316
S1131090ED016093EC0161507109709385006093D8
S11310A08400D093E101C093E001DF91CF910895D2
S11310B02091E0013091E101253B31051CF084EBE6
S11310C0D1CF089533231CF480E0CCCF0895A90137
S11310D0480F511DCA015093E1014093E001C2CF72
S11310E0089589EF97EA909387008093860083E2BE
S11310F080938B008AE180938A00149A80E0D8CF91
S113110008958091E0019091E1010895CF9387B70C
S1131110C0E28C2787BF8C9A949A81E090E085D0B6
S113112094988C9886B7806286BF87B7C827C7BF54
S1131130CF910895EBDF8091E2018823E1F3809160
S1131140E4019091E5012091E6013091E7011092CC
S1131150E201821B930BBC0122F466277727681BEC
S1131160790B80E090E08CD125E933E44BE85FE330
S113117015D255D1CB0108951FBC85EC8EBD80E2FC
S113118087BF08951F920F920FB60F9211248F9369
S11311909F9380910C01882381F086B597B5909335
S11311A0E7018093E60181E08093E30110920C0152
S11311B09EB580E489278EBD15C08091E301882304
S11311C089F086B597B59093E5018093E40181E0B9
S11311D080930C011092E3018093E2019EB580E4B8
S11311E089278EBD9F918F910F900FBE0F901F90F6
S11311F018951092F0011092EF01811106C08BE056
S113120085BD87B7806887BF07C0813029F489E02E
S113121085BD87B7806887BF7894089587B78F772F
S113122087BF85B58F7785BD0895CF93DF93EC0194
S11312308AEF83BD1092F0011092EF0180E0D9DFB4
S11312402091EF013091F0012C173D07C8F3E6DF40
S1131250DF91CF9108951F920F920FB60F92112430
S11312608F939F938091EF019091F0010196909359
S1131270F0018093EF019F918F910F900FBE0F901B
S11312801F9018955058BB27AA270ED04DC13ED1A8
S113129030F043D120F031F49F3F11F41EF433C1F8
S11312A00EF4E095E7FB29C1E92F4FD180F3BA177B
S11312B0620773078407950718F071F49EF567C1F8
S11312C00EF4E0950B2EBA2FA02D0B01B90190015D
S11312D00C01CA01A0011124FF27591B99F0593FA1
S11312E050F4503E68F11A16F040A22F232F342FE9
S11312F04427585FF3CF469537952795A795F04037
S11313005395C9F77EF41F16BA0B620B730B840B4B
S1131310BAF09150A1F0FF0FBB1F661F771F881F03
S1131320C2F70EC0BA0F621F731F841F48F487955B
S113133077956795B795F7959E3F08F0B3CF93954A
S1131340880F08F09927EE0F9795879508950CD08C
S1131350EBC0E3D040F0DAD030F021F45F3F19F075
S1131360CCC0511115C1CFC0F0D098F39923C9F363
S11313705523B1F3951B550BBB27AA276217730797
S1131380840738F09F5F5F4F220F331F441FAA1F4B
S1131390A9F333D00E2E3AF0E0E830D0915050400B
S11313A0E695001CCAF729D0FE2F27D0660F771FB9
S11313B0881FBB1F261737074807AB07B0E809F09B
S11313C0BB0B802DBF01FF2793585F4F2AF09E3F30
S11313D0510568F092C0DCC05F3FECF3983EDCF34B
S11313E0869577956795B795F7959F5FC9F7880FA9
S11313F0911D9695879597F90895E1E0660F771FFB
S1131400881FBB1F621773078407BA0720F0621B8B
S1131410730B840BBA0BEE1F88F7E095089504D084
S11314206894B111B5C0089598D088F09F5790F092
S1131430B92F9927B751A0F0D1F0660F771F881FF5
S1131440991F1AF0BA95C9F712C0B13081F09FD034
S1131450B1E008959CC0672F782F8827B85F39F0D2
S1131460B93FCCF3869577956795B395D9F73EF454
S113147090958095709561957F4F8F4F9F4F0895FC
S1131480E89409C097FB3EF490958095709561951A
S11314907F4F8F4F9F4F9923A9F0F92F96E9BB27D0
S11314A09395F695879577956795B795F111F8CF4C
S11314B0FAF4BB0F11F460FF1BC06F5F7F4F8F4FB7
S11314C09F4F16C0882311F096E911C0772321F0AD
S11314D09EE8872F762F05C0662371F096E8862F45
S11314E070E060E02AF09A95660F771F881FDAF79C
S11314F0880F9695879597F9089597F99F6780E8DF
S113150070E060E008959FEF80EC089500240A9451
S11315101616170618060906089500240A941216CA
S11315201306140605060895092E0394000C11F4FD
S1131530882352F0BB0F40F4BF2B11F460FF04C0AA
S11315406F5F7F4F8F4F9F4F089557FD9058440F03
S1131550551F59F05F3F71F04795880F97FB991F0E
S113156061F09F3F79F087950895121613061406CB
S1131570551FF2CF4695F1DF08C016161706180658
S1131580991FF1CF86957105610508940895E89433
S1131590BB2766277727CB0197F908950BD0C4CFD3
S11315A0B5DF28F0BADF18F0952309F0A6CFABCF4A
S11315B01124EECFCADFA0F3959FD1F3950F50E02D
S11315C0551F629FF001729FBB27F00DB11D639FF1
S11315D0AA27F00DB11DAA1F649F6627B00DA11D97
S11315E0661F829F2227B00DA11D621F739FB00D3D
S11315F0A11D621F839FA00D611D221F749F3327AD
S1131600A00D611D231F849F600D211D822F762F45
S11316106A2F11249F5750408AF0E1F088234AF042
S1131620EE0FFF1FBB1F661F771F881F915050408E
S1131630A9F79E3F510570F060CFAACF5F3FECF34E
S1131640983EDCF3869577956795B795F795E7957A
S11316509F5FC1F7FE2B880F911D9695879597F98B
S11316600895FA01EE0FFF1F30962105310599F117
S11316706115710561F48038BFE39B0749F16894F3
S11316809038810561F08038BFEF9B0741F09923C2
S113169042F5FF3FE1053105210511F1E894089475
S11316A0E795D901AA2329F4AB2FBE2FF85FD0F315
S11316B010C0FF5F70F4A695E0F7F73950F019F009
S11316C0FF3A38F49F779F930CD00F9007FC905803
S11316D008953EF018CF60E070E080E89FE308953D
S11316E04FE79F775F934F933F932F93F7D02F91BB
S11316F03F914F915F9152DF25C0DF93D92F85D061
S1131700E695D7952AED3FE049E45FE3B33A6207F3
S1131710730784079507D7952AF0A2EA49EC9068E5
S1131720C3DD02DFE0EBF0E05ED0DD0F0BF094D020
S1131730DD0F0BF49058DF91089519F40EF0DDCE0F
S113174026CFE1CE0ADFC8F39638C0F707F80F9228
S1131750E8942BE33AEA48EB5FE72EDF0F920F920F
S11317600F924DB75EB70F92F9D0E3EDF0E016D0CB
S11317704F915F91EF91FF91E595EE1FFF1F49F0A7
S1131780FE57E0684427EE0F441FFA95E1F74195B0
S1131790550B6BD00F9007FE5FC00895DF93CF9376
S11317A01F930F93FF92EF92DF927B018C01689459
S11317B005C0DA2EEF01FEDEFE01E894A591259125
S11317C0359145915591AEF3EF016EDDFE01970120
S11317D0A801DA9479F7DF90EF90FF900F911F91B1
S11317E0CF91DF9108959F938F937F936F93FF938E
S11317F0EF939B01AC01D2DEEF91FF91CFDF2F91EC
S11318003F914F915F91CACE7ECEA7DEE8F3E89474
S1131810E0E0BB279F57F0F02AED3FE049EC06C01B
S1131820EE0FBB0F661F771F881F28F0B23A6207BE
S11318307307840728F0B25A620B730B840BE39589
S11318409A9572F7803830F49A95BB0F661F771F0C
S1131850881FD2F79048B7C09B01AC0160E070E0EC
S113186080E89FE374CD49CEACC077DEE8F39923DA
S1131870D9F3940F511DBBF39150504094F059F09B
S1131880882332F0660F771F881F91505040C1F7AC
S11318909E3F510544F7880F911D9695879597F9BA
S11318A008955F3FACF0983E9CF0BB2786957795F2
S11318B06795B79508F4B1609395C1F7BB0F58F7D6
S11318C011F460FFE8CF6F5F7F4F8F4F9F4FE3CFDF
S11318D05FCE0EF076C017CE68940FCE3EDEC8F30E
S11318E09923D1F3C6F3DF93CF931F930F93FF9202
S11318F0C92FDD2788232AF02197660F771F881FB9
S1131900DAF720E030E040E85FEB9FE3883920F02D
S1131910803E30F021968F77B6DCEBEFF0E003C029
S1131920B2DCE8E2F1E03ADF8B01BE01EC01FB2E10
S11319306F5771097595771F880B990BA3DD28E103
S113194032E741E35FE336DEAF2D9801AE01FF904D
S11319500F911F91CF91DF91A7DCE6CDFA01DC0155
S1131960AA0FBB1F9B01AC01BF5728F422273327C2
S1131970442750781FC0B75188F4AB2F00244695F4
S113198037952795011CA395D2F3002069F0220F07
S1131990331F441FB395DAF30DD074CC6130710555
S11319A0A0E88A07B94630F49B01AC016627772783
S11319B088279078309621F02083318342835383A3
S11319C008959F3F31F0915020F48795779567955E
S11319D0B795880F911D9695879597F908952F923D
S11319E03F924F925F926F927F928F929F92AF92AB
S11319F0BF92CF92DF92EF92FF920F931F93CF93F8
S1131A00DF93CDB7DEB763970FB6F894DEBF0FBE92
S1131A10CDBF7C011B016A01FC0117821682838100
S1131A2081FF49C3BE016F5F7F4F4B01F701938173
S1131A30F10193FD859193FF81911F01882309F49E
S1131A4036C3853239F493FD859193FF81911F014B
S1131A50853231F4B70190E0BCD556016501E6CF7B
S1131A6010E0512C20E02032A0F48B3269F030F4E5
S1131A70803259F0833269F420612CC08D3239F000
S1131A80803339F4216026C02260246023C028609A
S1131A9021C027FD27C030ED380F3A3078F426FFF7
S1131AA006C0FAE01F9F300D1124132F13C06AE003
S1131AB0569E300D1124532E20620CC08E3221F418
S1131AC026FDF5C2206406C08C3611F4206802C0DD
S1131AD0883641F4F10193FD859193FF81911F01B3
S1131AE08111C1CF9BEB980F933018F42061805E75
S1131AF006C09BE9980F933008F09AC12F7E26FF09
S1131B0016E02F73722E853621F4F22FF0647F2EA7
S1131B1008C0863621F4622F6068762E02C0111147
S1131B20115077FE07C01C3348F444244394410EFB
S1131B3027E00BC0183030F4212F06C027E04CE317
S1131B40442E03C027E017E0412C560174E0A70E91
S1131B50B11CF6016081718182819381042DA401FD
S1131B6033D46C01098100FF02C003FF06C071FC7D
S1131B7007C072FC08C0612C08C03DE2632E05C09A
S1131B802BE2622E02C090E2692E802F8C7081F1CC
S1131B90662011F084E001C083E0851510F0512C1B
S1131BA00AC0581A73FC07C0B70180E290E011D54F
S1131BB05A94D1F7F4CF662021F0B701862D90E036
S1131BC008D503FD03C00AE511E002C006E511E0F3
S1131BD0F72DF0717F2EF8018491882309F45EC2F9
S1131BE071108052B70190E0F4D40F5F1F4FF3CF10
S1131BF077FE0FC04C0C04FF04C08A81813309F4C2
S1131C004A94141474F5F8E0F41578F588E0482E35
S1131C102CC076FC2AC0812F90E08C159D059CF089
S1131C206CEFC6166FEFD60674F0772D7068772EBA
S1131C300AC0E2E0F0E0EC0FFD1FE10FF11D80812E
S1131C40803319F411501111F4CF77FE0EC04424DF
S1131C504394410E812F90E0C816D9062CF41C1928
S1131C6004C04424439401C010E077FE07C01C1450
S1131C701D043CF496012F5F3F4F05C025E030E082
S1131C8002C021E030E0662011F02F5F3F4F1123A6
S1131C9031F0412F50E04F5F5F4F240F351F452D2A
S1131CA050E02417350714F4521A01C0512C872D23
S1131CB0897041F4552031F0B70180E290E089D475
S1131CC05A94F8CF662021F0B701862D90E081D494
S1131CD073FC08C0552031F0B70180E390E079D45B
S1131CE05A94F8CF77FE5DC09C2D8D2DD7FE02C08F
S1131CF090E080E0692E782E40E050E0C60184191F
S1131D0091099D878C87960126193709280D391D5D
S1131D10812F90E0EE27FF27E81BF90BFF87EE8762
S1131D20FFEF6F167F0661F4B7018EE290E02B8B14
S1131D303A8B488B598B4DD4598948893A892B89D8
S1131D40C614D70454F06C857D85661577052CF48C
S1131D50F901E40FF51F818101C080E371E0671A86
S1131D6071084F5F5F4FEE85FF856E167F0664F046
S1131D70B70190E02B8B3A8B488B598B2AD42B8953
S1131D803A8948895989CCCF6C147D0439F49A81F5
S1131D90963318F4953311F404FF81E3B70190E00E
S1131DA045C08A81813309F00F7EB70190E011D4D8
S1131DB0111105C074FE16C085E490E015C0B7018A
S1131DC08EE290E006D482E066246394680EF40107
S1131DD0E80FF11D8081B70190E0FBD3115051F35E
S1131DE0862DF2CF85E690E0B701F3D3D7FC05C08A
S1131DF0C114D10439F404FF05C0D194C194D108AD
S1131E008DE201C08BE2B70190E0E3D380E36AE0A6
S1131E10C616D1042CF08F5FFAE0CF1AD108F7CFA1
S1131E20B70190E0D6D3B701C601C096D2D336C16C
S1131E30833631F0833779F0833509F054C020C0FC
S1131E40560172E0A70EB11CF6018081898301E07E
S1131E5010E0640113C05601F2E0AF0EB11CF601AC
S1131E60C080D18026FF03C0612F70E002C06FEFF5
S1131E707FEFC6012B8BA2D38C012B892F7714C043
S1131E805601F2E0AF0EB11CF601C080D18026FFEE
S1131E9003C0612F70E002C06FEF7FEFC6012B8B90
S1131EA06BD38C012B892068722E23FD18C0852DDD
S1131EB090E00817190798F4B70180E290E089D3FD
S1131EC05A94F5CFF60177FC859177FE81916F01E5
S1131ED0B70190E07ED351105A94015011090115B5
S1131EE0110581F7DBC0843611F0893649F55601B6
S1131EF027FF09C0F4E0AF0EB11CF60160817181C7
S1131F00828193810AC0F2E0AF0EB11CF6016081B8
S1131F107181882777FD8095982F022F0F7697FF80
S1131F2008C090958095709561957F4F8F4F9F4F16
S1131F3000682AE030E0A401E4D3C82EC8183DC0EC
S1131F40022F853721F40F7E2AE030E01DC0097F7F
S1131F508F3691F018F4883559F0A9C0803719F0FC
S1131F60883711F0A4C0006104FF09C0046007C0F1
S1131F7024FF08C0066006C028E030E005C020E168
S1131F8030E002C020E132E0560107FF09C0F4E06E
S1131F90AF0EB11CF601608171818281938108C00A
S1131FA0F2E0AF0EB11CF6016081718180E090E037
S1131FB0A401A7D3C82EC8180F7706FF0BC0202F83
S1131FC02E7FC11650F404FF0AC002FD08C0202F62
S1131FD02E7E05C0DC2C202F03C0DC2C01C0D12EAA
S1131FE024FF0DC0FE01EC0DF11D8081803311F43E
S1131FF0297E09C022FF06C0D394D39404C0822F43
S1132000867809F0D39423FD12C020FF06C01C2D4E
S1132010D51418F4150D1D19D52CD51460F4B70179
S113202080E290E02B8BD5D2D3942B89F6CFD514B4
S113203010F45D1801C0512C24FF11C0B70180E3D6
S113204090E02B8BC6D22B8922FF16C021FF03C040
S113205088E590E002C088E790E0B7010CC0822FC9
S1132060867851F021FD02C080E201C08BE227FD99
S11320708DE2B70190E0ADD2C11630F4B70180E330
S113208090E0A7D21150F8CFCA94F401EC0DF11DE1
S11320908081B70190E09DD2C110F6CF552009F49C
S11320A0DDCCB70180E290E094D25A94F7CFF701E7
S11320B08681978102C08FEF9FEF63960FB6F894E5
S11320C0DEBF0FBECDBFDF91CF911F910F91FF9067
S11320D0EF90DF90CF90BF90AF909F908F907F90C4
S11320E06F905F904F903F902F90089597FB072E2D
S11320F016F4009406D077FD08D011D007FC05D063
S11321003EF4909581959F4F0895709561957F4F0A
S11321100895EE0FFF1F0590F491E02D0994AA1B7A
S1132120BB1B51E107C0AA1FBB1FA617B70710F0BE
S1132130A61BB70B881F991F5A95A9F780959095F0
S1132140BC01CD0108950F931F93CF93DF93869F16
S11321508001879F100D969F100D1124C8010DD08A
S1132160EC01009721F0A80160E070E010D2CE01EC
S1132170DF91CF911F910F910895CF93DF93823018
S1132180910510F482E090E0E091F301F091F40104
S113219020E030E0A0E0B0E0309739F14081518197
S11321A048175907B8F04817590771F48281938189
S11321B0109729F013969C938E9312972CC09093AA
S11321C0F4018093F30127C02115310531F0421742
S11321D0530718F0A901DB0101C0EF019A01BD0109
S11321E0DF010280F381E02DD7CF21153105F9F00D
S11321F0281B390B2430310580F48A819B816115B9
S1132200710521F0FB019383828304C09093F40150
S11322108093F301FE01329644C0FE01E20FF31FE6
S11322208193919322503109398328833AC02091B4
S1132230F1013091F201232B41F4209102013091FC
S113224003013093F2012093F101209100013091B8
S113225001012115310541F42DB73EB74091040128
S113226050910501241B350BE091F101F091F2012D
S1132270E217F307A0F42E1B3F0B2817390778F059
S1132280AC014E5F5F4F2417350748F04E0F5F1FB8
S11322905093F2014093F1018193919302C0E0E0E5
S11322A0F0E0CF01DF91CF910895CF93DF930097B2
S11322B009F487C0FC01329713821282C091F301A2
S11322C0D091F401209781F420813181280F391FA6
S11322D08091F1019091F2018217930779F5F093BF
S11322E0F201E093F1016DC0DE0120E030E0AE17B1
S11322F0BF0750F412964D915C9113979D014115BF
S1132300510509F1DA01F3CFB383A28340815181EE
S1132310840F951F8A179B0771F48D919C911197D7
S1132320840F951F02969183808312968D919C91C0
S11323301397938382832115310529F4F093F401D3
S1132340E093F3013EC0D9011396FC93EE931297E8
S11323504D915D91A40FB51FEA17FB0779F48081B5
S11323609181840F951F0296D90111969C938E93A7
S11323708281938113969C938E931297E0E0F0E010
S11323808A819B81009719F0FE01EC01F9CFCE01FF
S1132390029628813981820F931F2091F101309197
S11323A0F2012817390769F4309729F41092F401DF
S11323B01092F30102C013821282D093F201C093EF
S11323C0F101DF91CF910895283008F027E03327F9
S11323D0DA01990F311D87FD916000966105710541
S11323E039F432602E5F3D9330E32A95E1F7089586
S11323F09F3F30F080387105610509F03C5F3C5F18
S11324003D93913008F08068911DDF93CF931F9323
S11324100F93FF92EF92192F987F9695E92F969537
S11324209695E90FFF27E854FE4F99273327EE24AA
S1132430FF24A701E70105900894079428F4360FB8
S1132440E71EF81E491F511D660F771F881F991F2D
S11324500694A1F70590079428F4E70EF81E491F87
S1132460561FC11D770F881F991F661F0694A1F779
S11324700590079428F4F80E491F561FC71FD11D55
S1132480880F991F661F771F0694A1F7059007947C
S113249020F4490F561FC71FD81F990F661F771FB7
S11324A0881F0694A9F784911095177041F0D6956A
S11324B0C79557954795F794E7941A95C1F7EEE5B4
S11324C0F1E0689415901591359165919591059079
S11324D07FE27395E118F10A430B560BC90BD0093F
S11324E0C0F7E10CF11E431F561FC91FD01D7EF417
S11324F0703311F48A95E6CFE894015030F0080F58
S11325000AF40027021708F4202F2395022F7A33A8
S113251028F079E37D932A95E9F710C07D932A95F5
S113252089F6069497956795379517951794E1184A
S1132530F10A430B560BC90BD00998F023957E91F1
S113254073957A3308F070E37C932013B8F77E9187
S113255070617D9330F0839571E37D9370E32A95E8
S1132560E1F71124EF90FF900F911F91CF91DF912C
S1132570992787FD90950895FC010590615070405E
S11325800110D8F7809590958E0F9F1F0895DC0158
S113259001C06D9341505040E0F70895FB01DC0108
S11325A08D91019080190110D9F3990B0895FB01C5
S11325B0DC0101900D920020E1F70895FC016150C7
S11325C0704001900110D8F7809590958E0F9F1F51
S11325D008950F931F93CF93DF93182F092FEB01C7
S11325E08B8181FD03C08FEF9FEF20C082FF10C05D
S11325F04E815F812C813D81421753077CF4E88131
S1132600F9819F012F5F3F4F39832883108306C0D0
S1132610E885F985812F0995892B29F72E813F813A
S11326202F5F3F4F3F832E83812F902FDF91CF91D8
S11326301F910F9108950F931F93CF93DF93CDB7FD
S1132640DEB72E970FB6F894DEBF0FBECDBF0D894F
S11326501E8986E08C831A8309838FEF9FE79E830C
S11326608D83AE01475E5F4F6F89788DCE010196F1
S1132670B6D9EF81F885E00FF11F10822E960FB6C0
S1132680F894DEBF0FBECDBFDF91CF911F910F91A4
S113269008950F931F93CF93DF93CDB7DEB72E9793
S11326A00FB6F894DEBF0FBECDBF8C01CA0146E061
S11326B04C831A83098377FF02C060E070E861509D
S11326C071097E836D83A901BC01CE01019687D96E
S11326D04D815E8157FD0AC02F813885421753070B
S11326E00CF49A01F801E20FF31F10822E960FB634
S11326F0F894DEBF0FBECDBFDF91CF911F910F9134
S11327000895FA01AA27283051F1203181F1E89483
S11327106F936E7F6E5F7F4F8F4F9F4FAF4FB1E0D0
S11327203ED0B4E03CD0670F781F891F9A1FA11DCB
S1132730680F791F8A1F911DA11D6A0F711D811DCC
S1132740911DA11D20D009F468943F912AE0269F91
S113275011243019305D3193DEF6CF010895462FF0
S11327604770405D4193B3E00FD0C9F7F6CF462FD1
S11327704F70405D4A3318F0495D31FD405241933A
S113278002D0A9F7EACFB4E0A695979587957795F7
S11327906795BA95C9F700976105710508959B017E
S11327A0AC010A2E06945795479537952795BA9507
S11327B0C9F7620F731F841F951FA01D0895F89415
S10527C0FFCF45
S11327C20000F5012000190A283201010149204DB7
S11327D241444520495421210046204C20424C4189
S11327E2434B00462057004C2057005220570046C6
S11327F2205220424C41434B0042204C0042205282
S11328020046204C20434C0046205220434C004EAC
S11328124F4E4500256420256400252E32660000B3
S9030000FC
