S02900004F626A656374436F756E74696E675F53697A654469736372696D696E6174696F6E2E73726563A6
S113000086C00000A2C00000A0C000009EC0000086
S11300109CC000009AC0000098C0000096C0000078
S113002094C0000081C3000090C0000014C300000D
S11300308CC000008AC0000088C0000086C0000098
S113004084C0000082C0000080C000007EC00000A8
S11300507CC000007AC0000078C0000076C00000B8
S113006074C0000072C0000070C000006EC00000C8
S11300706CC000006AC0000068C0000066C00000D8
S113008064C0000062C0000060C000000763423624
S1130090B79BD8A71A39685618AEBAAB558C1D3C15
S11300A0B7CC5763BD6DEDFD753EF6177231BF00D9
S11300B00000803F08000000BE922449123EABAA13
S11300C0AA2ABECDCCCC4C3E00000080BEABAAAA6E
S11300D0AA3E00000000BF000000803F00000000B6
S11300E000084178D3BB4387D1133D190E3CC3BDEF
S11300F04282AD2B3E68EC8276BED98FE1A93E4C9C
S113010080EFFFBE01C4FF7F3F0000000000112408
S11301101FBECFEFD0E1DEBFCDBF11E0A0E0B1E064
S1130120E4E6F4E100E00BBF02C007900D92A036B4
S1130130B107D9F721E0A0E6B1E001C01D92A53CCA
S1130140B207E1F74BD10C94300A5ACF80EC87B94F
S113015087E886B9089597B18F71982B97B9369A25
S11301603699FECF84B195B1089582E0F4DFBC01E5
S113017080E090E0EED326E636E646E95FE3DAD4A3
S11301809B01AC0160E076E68BEF96E449D3B0D3F3
S1130190CB010895DE9A90E0B1D2DE988BB3807FD4
S11301A08BBB0895CF93C82FDC988BB39C2F92956B
S11301B09F70892B8BBB82E0EDDF8BB3CF70C82B94
S11301C0CBBB82E0E7DFDC9ACF91089581E0EADFE0
S11301D081E090E093C2089582E0E4CF08958FEF28
S11301E08ABB83E08BBBDE9A81E090E087D2DE9805
S11301F085E090E083D2DE9A81E090E07FD2DE98C1
S1130200DE9A81E090E07AD2DE9882E08BBB81E0D6
S1130210C1DF8BB38BBB81E0BDDF8BB38E608BBB47
S113022081E0B8DF8BB38BBB81E0B4DF8BB3866036
S11302308BBB81E0AFDF8BB38BBB81E0ABDFD89AA4
S113024081E0A8DFDC9AC8CF089580ECABCF089595
S113025084E9A8CF089584EDA5CF0895CF93C82F3E
S11302608BB39C2F92959F70892B8BBB81E092DF7F
S11302708BB3CF70C82BCBBB81E08CDFCF910895BB
S1130280CF92DF92EF92FF920F931F93CF93DF935E
S1130290CDB7DEB7C155D1090FB6F894DEBF0FBE96
S11302A0CDBFFE01E45AFF4F419151919F0161E599
S11302B070E0CE01019608D6BE016F5F7F4F80E6E5
S11302C091E0C4D5892B09F43FC0BE016F5F7F4F15
S11302D080E691E0C4D57ADF9E012F5F3F4F69012C
S11302E000E010E00F2EF4E1EF2EF12CF02D24C0ED
S11302F08A3049F4C801B70182D5F701E81BF90B2C
S11303000E0F1F1F03C0AADF0F5F1F4FC801B701E5
S113031076D5892B89F4C801B70171D5623071058E
S113032041F06330710539F06130710529F48DDFD6
S113033003C08EDF01C08FDFF60181916F01882336
S113034019F000351105A4F2CF5ADF4F0FB6F89417
S1130350DEBF0FBECDBFDF91CF911F910F91FF90F4
S1130360EF90DF90CF9008952091B6013091B701BE
S1130370281B390BA90122F444275527421B530B90
S1130380493C5105F4F04091B501411108C041E0E8
S11303904093B5014091B8014093B4010BC0413082
S11303A049F44091B8015091B401451B4093B30105
S11303B01092B5011216130624F47093B2016093DF
S11303C0B1012091B30130910001231710F420935F
S11303D000019093B7018093B6010895AF92BF9244
S11303E0CF92DF92EF92FF920F931F93CF93DF93FD
S11303F0CDB7DEB7C456D1090FB6F894DEBF0FBE31
S1130400CDBF69D0A3DE21D1D4D0E9DEE3D080937F
S1130410B80181E792E072D182E091E068D08091E6
S1130420B801843B98F50F2EFEE2EF2EF1E0FF2E8B
S1130430F02D8E010F5F1F4F81E090E0A1D0E3D03B
S1130440B82EA92E92DEC82ED92EAF92BF929F93BA
S11304508F938091B8011F928F93FF92EF921F9315
S11304600F9304D5C80143D0B5D08093B8018C2D27
S11304709D2D7ADF8AE090E041D10FB6F894DEBF7B
S11304800FBECDBF8091B801843BB0F2AF92BF9252
S1130490809100011F928F938AE391E09F938F9341
S11304A0EFDE0F900F900F900F900F900F9080E061
S11304B090E0CC59DF4F0FB6F894DEBF0FBECDBF2E
S11304C0DF91CF911F910F91FF90EF90DF90CF902C
S11304D0BF90AF9008951092900082E289B988E0AD
S11304E08AB98EE08093950082E08BB90895EF92EB
S11304F0FF920F931F93CF93DF93FC010190002091
S1130500E9F731977F01E81AF90A82F08C01C0E01B
S1130510D0E05D9BFECFF80181918F018CB981E021
S113052090E0ECD02196EC16FD069CF78AE08CB99D
S113053081E090E0E3D08DE08CB9DF91CF911F9101
S11305400F91FF90EF900895BC01882777FD809567
S1130550982F01D221E73DE344E951E488D220E019
S113056030E04AE754E4F8D0C8D17093C1016093F5
S1130570C0016150710970938500609384000895EF
S11305802091B8013091B901253B310524F084EB69
S113059090E0DACF0895332324F480E090E0D4CFC0
S11305A00895820F931F9093B9018093B801CCCF23
S11305B0089589EF97EA909387008093860083E2F9
S11305C080938B008AE180938A00149A80E090E003
S11305D0D7CF08958091B8019091B9010895CF9330
S11305E087B7C0E28C2787BF8C9A949A81E090E009
S11305F085D094988C9886B7806286BF87B7C827C1
S1130600C7BFCF910895EBDF8091BA018823E1F34E
S11306108091BC019091BD012091BE013091BF0138
S11306201092BA01821B930BBC0122F46627772730
S1130630681B790B80E090E08CD125E933E44BE82A
S11306405FE315D255D1CB0108951FBC85EC8EBD57
S113065080E287BF08951F920F920FB60F92112464
S11306608F939F9380910101882381F086B597B57C
S11306709093BF018093BE0181E08093BB011092EF
S113068001019EB580E489278EBD15C08091BB0110
S1130690882389F086B597B59093BD018093BC01FA
S11306A081E0809301011092BB018093BA019EB551
S11306B080E489278EBD9F918F910F900FBE0F907C
S11306C01F9018951092C4011092C301811106C0A5
S11306D08BE085BD87B7806887BF07C0813029F468
S11306E089E085BD87B7806887BF7894089587B708
S11306F08F7787BF85B58F7785BD0895CF93DF93B7
S1130700EC018AEF83BD1092C4011092C30180E012
S1130710D9DF2091C3013091C4012C173D07C8F3E0
S1130720E6DFDF91CF9108951F920F920FB60F92DB
S113073011248F939F938091C3019091C4010196DA
S11307409093C4018093C3019F918F910F900FBE2A
S11307500F901F9018955058BB27AA270ED04DC153
S11307603ED130F043D120F031F49F3F11F41EF418
S113077033C10EF4E095E7FB29C1E92F4FD180F393
S1130780BA17620773078407950718F071F49EF58A
S113079067C10EF4E0950B2EBA2FA02D0B01B90101
S11307A090010C01CA01A0011124FF27591B99F0E3
S11307B0593F50F4503E68F11A16F040A22F232FEF
S11307C0342F4427585FF3CF469537952795A7953F
S11307D0F0405395C9F77EF41F16BA0B620B730BE6
S11307E0840BBAF09150A1F0FF0FBB1F661F771F57
S11307F0881FC2F70EC0BA0F621F731F841F48F40C
S1130800879577956795B795F7959E3F08F0B3CF91
S11308109395880F08F09927EE0F9795879508957B
S11308200CD0EBC0E3D040F0DAD030F021F45F3FDD
S113083019F0CCC0511115C1CFC0F0D098F3992351
S1130840C9F35523B1F3951B550BBB27AA27621790
S11308507307840738F09F5F5F4F220F331F441FD5
S1130860AA1FA9F333D00E2E3AF0E0E830D091500D
S11308705040E695001CCAF729D0FE2F27D0660FFA
S1130880771F881FBB1F261737074807AB07B0E839
S113089009F0BB0B802DBF01FF2793585F4F2AF04F
S11308A09E3F510568F092C0DCC05F3FECF3983E78
S11308B0DCF3869577956795B795F7959F5FC9F7AC
S11308C0880F911D9695879597F90895E1E0660F35
S11308D0771F881FBB1F621773078407BA0720F0AE
S11308E0621B730B840BBA0BEE1F88F7E095089517
S11308F004D06894B111B5C0089598D088F09F577A
S113090090F0B92F9927B751A0F0D1F0660F771F57
S1130910881F991F1AF0BA95C9F712C0B13081F037
S11309209FD0B1E008959CC0672F782F8827B85FC7
S113093039F0B93FCCF3869577956795B395D9F798
S11309403EF490958095709561957F4F8F4F9F4FA2
S11309500895E89409C097FB3EF4909580957095AE
S113096061957F4F8F4F9F4F9923A9F0F92F96E9F7
S1130970BB279395F695879577956795B795F1116C
S1130980F8CFFAF4BB0F11F460FF1BC06F5F7F4F09
S11309908F4F9F4F16C0882311F096E911C077231B
S11309A021F09EE8872F762F05C0662371F096E824
S11309B0862F70E060E02AF09A95660F771F881FF3
S11309C0DAF7880F9695879597F9089597F99F67B1
S11309D080E870E060E008959FEF80EC08950024C3
S11309E00A941616170618060906089500240A9490
S11309F012161306140605060895092E0394000C16
S1130A0011F4882352F0BB0F40F4BF2B11F460FFA4
S1130A1004C06F5F7F4F8F4F9F4F089557FD9058CD
S1130A20440F551F59F05F3F71F04795880F97FBAE
S1130A30991F61F09F3F79F0879508951216130668
S1130A401406551FF2CF4695F1DF08C01616170697
S1130A501806991FF1CF86957105610508940895CC
S1130A60E894BB2766277727CB0197F908950BD025
S1130A70C4CFB5DF28F0BADF18F0952309F0A6CF6C
S1130A80ABCF1124EECFCADFA0F3959FD1F3950F1E
S1130A9050E0551F629FF001729FBB27F00DB11DFE
S1130AA0639FAA27F00DB11DAA1F649F6627B00D8E
S1130AB0A11D661F829F2227B00DA11D621F739F77
S1130AC0B00DA11D621F839FA00D611D221F749F85
S1130AD03327A00D611D231F849F600D211D822FCC
S1130AE0762F6A2F11249F5750408AF0E1F0882313
S1130AF04AF0EE0FFF1FBB1F661F771F881F915020
S1130B005040A9F79E3F510570F060CFAACF5F3FD8
S1130B10ECF3983EDCF3869577956795B795F79552
S1130B20E7959F5FC1F7FE2B880F911D96958795DA
S1130B3097F90895FA01EE0FFF1F3096210531054C
S1130B4099F16115710561F48038BFE39B0749F1A0
S1130B5068949038810561F08038BFEF9B0741F0BD
S1130B60992342F5FF3FE1053105210511F1E89490
S1130B700894E795D901AA2329F4AB2FBE2FF85F77
S1130B80D0F310C0FF5F70F4A695E0F7F73950F08A
S1130B9019F0FF3A38F49F779F930CD00F9007FC1D
S1130BA0905808953EF018CF60E070E080E89FE32D
S1130BB008954FE79F775F934F933F932F939ED072
S1130BC02F913F914F915F9152DF05C019F40EF0C0
S1130BD0FDCE46CF01CF2ADFC8F39638C0F707F819
S1130BE00F92E8942BE33AEA48EB5FE74EDF0F926B
S1130BF00F920F924DB75EB70F92C0D0ECE8F0E0C1
S1130C0016D04F915F91EF91FF91E595EE1FFF1F75
S1130C1049F0FE57E0684427EE0F441FFA95E1F7C8
S1130C204195550B32D00F9007FE26C00895DF93EF
S1130C30CF931F930F93FF92EF92DF927B018C016E
S1130C40689405C0DA2EEF011EDFFE01E894A59139
S1130C502591359145915591AEF3EF018EDDFE015D
S1130C609701A801DA9479F7DF90EF90FF900F9144
S1130C701F91CF91DF9108959B01AC0160E070E07A
S1130C8080E89FE3CDCDA2CEACC0D0DEE8F39923BB
S1130C90D9F3940F511DBBF39150504094F059F087
S1130CA0882332F0660F771F881F91505040C1F798
S1130CB09E3F510544F7880F911D9695879597F9A6
S1130CC008955F3FACF0983E9CF0BB2786957795DE
S1130CD06795B79508F4B1609395C1F7BB0F58F7C2
S1130CE011F460FFE8CF6F5F7F4F8F4F9F4FE3CFCB
S1130CF0B8CE0EF076C070CE689468CE97DEC8F396
S1130D009923D1F3C6F3DF93CF931F930F93FF92ED
S1130D10C92FDD2788232AF02197660F771F881FA4
S1130D20DAF720E030E040E85FEB9FE3883920F019
S1130D30803E30F021968F770FDDE4EBF0E003C0C6
S1130D400BDDE1EEF0E073DF8B01BE01EC01FB2E65
S1130D506F5771097595771F880B990BFCDD28E196
S1130D6032E741E35FE38FDEAF2D9801AE01FF90E0
S1130D700F911F91CF91DF9100DD3FCEFA01DC018D
S1130D80AA0FBB1F9B01AC01BF5728F422273327AE
S1130D90442750781FC0B75188F4AB2F00244695E0
S1130DA037952795011CA395D2F3002069F0220FF3
S1130DB0331F441FB395DAF30DD0CDCC61307105E8
S1130DC0A0E88A07B94630F49B01AC01662777276F
S1130DD088279078309621F020833183428353838F
S1130DE008959F3F31F0915020F48795779567954A
S1130DF0B795880F911D9695879597F9089597FB58
S1130E00072E16F4009406D077FD08D00BD007FC0B
S1130E1005D03EF4909581959F4F08957095619506
S1130E207F4F0895AA1BBB1B51E107C0AA1FBB1F1C
S1130E30A617B70710F0A61BB70B881F991F5A9562
S1130E40A9F780959095BC01CD010895FB01DC01C3
S1130E508D91019080190110D9F3990B0895FB012C
S1130E60DC0101900D920020E1F708950F931F9388
S1130E70CF93DF93CDB7DEB72E970FB6F894DEBFCE
S1130E800FBECDBF0D891E8986E08C831A8309832A
S1130E908FEF9FE79E838D83AE01475E5F4F6F891F
S1130EA0788DCE01019648D0EF81F885E00FF11FCF
S1130EB010822E960FB6F894DEBF0FBECDBFDF9121
S1130EC0CF911F910F9108950F931F93CF93DF93A9
S1130ED0CDB7DEB72E970FB6F894DEBF0FBECDBFE9
S1130EE08C01CA0146E04C831A83098377FF02C050
S1130EF060E070E8615071097E836D83A901BC01D3
S1130F00CE01019619D04D815E8157FD0AC02F8113
S1130F103885421753070CF49A01F801E20FF31FC6
S1130F2010822E960FB6F894DEBF0FBECDBFDF91B0
S1130F30CF911F910F9108952F923F924F925F92FC
S1130F406F927F928F929F92AF92BF92CF92DF92D5
S1130F50EF92FF920F931F93CF93DF93CDB7DEB73A
S1130F602C970FB6F894DEBF0FBECDBF7C016B018A
S1130F708A01FC0117821682838181FFB0C1CE01F0
S1130F8001964C01F7019381F60193FD859193FF3E
S1130F9081916F01882309F49EC1853239F493FD50
S1130FA0859193FF81916F01853221F4B70190E01F
S1130FB0C7D1E8CF512C312C20E02032A0F48B3261
S1130FC069F030F4803259F0833269F420612CC026
S1130FD08D3239F0803339F4216026C022602460D8
S1130FE023C0286021C027FD27C030ED380F3A30D8
S1130FF078F426FF06C0FAE05F9E300D1124532ECC
S113100013C08AE0389E300D1124332E20620CC0A8
S11310108E3221F426FD5FC1206406C08C3611F4A3
S1131020206802C0883641F4F60193FD859193FF50
S113103081916F018111C1CF982F9F7D9554933079
S113104028F40C5F1F4FFFE3F9830DC0833631F0A2
S1131050833771F0833509F057C021C0F8018081CE
S113106089830E5F1F4F44244394512C540114C0B0
S11310703801F2E06F0E711CF801A080B18026FFE8
S113108003C0652D70E002C06FEF7FEFC5012C87B0
S11310904CD12C0183012C852F77222E16C03801C8
S11310A0F2E06F0E711CF801A080B18026FF03C02E
S11310B0652D70E002C06FEF7FEFC5012C872AD148
S11310C02C012C852068222E830123FC19C0832D3A
S11310D090E048165906A0F4B70180E290E030D1C0
S11310E03A94F5CFF50127FC859127FE81915F01A4
S11310F0B70190E025D131103A94F1E04F1A51082C
S11311004114510479F7DEC0843611F0893631F583
S1131110F80127FF07C060817181828193810C5F90
S11311201F4F08C060817181882777FD8095982FB3
S11311300E5F1F4F2F76B22E97FF09C090958095B2
S1131140709561957F4F8F4F9F4F2068B22E2AE094
S113115030E0A40127D1A82EA81843C0853729F46C
S11311602F7EB22E2AE030E025C0F22FF97FBF2E69
S11311708F36C1F018F4883579F0ADC0803719F096
S1131180883721F0A8C02F2F2061B22EB4FE0DC0E5
S11311908B2D8460B82E09C024FF0AC09F2F96604F
S11311A0B92E06C028E030E005C020E130E002C0DE
S11311B020E132E0F801B7FE07C0608171818281CD
S11311C093810C5F1F4F06C06081718180E090E0C5
S11311D00E5F1F4FA401E6D0A82EA818FB2DFF77A1
S11311E0BF2EB6FE0BC02B2D2E7FA51450F4B4FEDB
S11311F00AC0B2FC08C02B2D2E7E05C07A2C2B2DE4
S113120003C07A2C01C0752C24FF0DC0FE01EA0D29
S1131210F11D8081803311F4297E09C022FF06C0AC
S11312207394739404C0822F867809F0739423FD19
S113123012C020FF06C05A2C731418F4530C57180C
S1131240732C731460F4B70180E290E02C8778D09B
S113125073942C85F6CF731410F4371801C0312C15
S113126024FF11C0B70180E390E02C8769D02C855E
S113127022FF16C021FF03C088E590E002C088E782
S113128090E0B7010CC0822F867851F021FD02C096
S113129080E201C08BE227FD8DE2B70190E050D0DF
S11312A0A51430F4B70180E390E04AD05A94F8CF03
S11312B0AA94F401EA0DF11D8081B70190E040D0B9
S11312C0A110F6CF332009F45DCEB70180E290E09F
S11312D037D03A94F7CFF7018681978102C08FEF18
S11312E09FEF2C960FB6F894DEBF0FBECDBFDF91F3
S11312F0CF911F910F91FF90EF90DF90CF90BF900F
S1131300AF909F908F907F906F905F904F903F90A1
S11313102F900895FC010590615070400110D8F79A
S1131320809590958E0F9F1F0895FC016150704029
S113133001900110D8F7809590958E0F9F1F089506
S11313400F931F93CF93DF93182F092FEB018B81FA
S113135081FD03C08FEF9FEF20C082FF10C04E813C
S11313605F812C813D81421753077CF4E881F98128
S11313709F012F5F3F4F39832883108306C0E88580
S1131380F985812F0995892B29F72E813F812F5FBC
S11313903F4F3F832E83812F902FDF91CF911F9159
S11313A00F910895FA01AA27283051F1203181F1D3
S11313B0E8946F936E7F6E5F7F4F8F4F9F4FAF4F59
S11313C0B1E03ED0B4E03CD0670F781F891F9A1F6C
S11313D0A11D680F791F8A1F911DA11D6A0F711D20
S11313E0811D911DA11D20D009F468943F912AE02C
S11313F0269F11243019305D3193DEF6CF01089514
S1131400462F4770405D4193B3E00FD0C9F7F6CF44
S1131410462F4F70405D4A3318F0495D31FD40520C
S1131420419302D0A9F7EACFB4E0A69597958795A2
S113143077956795BA95C9F7009761057105089581
S11314409B01AC010A2E069457954795379527952D
S1131450BA95C9F7620F731F841F951FA01D0895C5
S1071460F894FFCF2A
S11314643201446567726565090949522044697308
S113147474616E636528636D290909536F6E617223
S11314842044697374616E636528636D290025645F
S113149409092564090909256400416E67756C61AD
S11314A4725F57696474683A2025640A536F6E61E5
S11314B4722044697374616E63653A202564000084
S9030000FC
