S016000069526F626F744D6F76656D656E742E7372656354
S113000045C0000060C000005EC000005CC000008D
S11300105AC0000058C0000056C0000054C0000080
S113002052C000009DC200004EC000004CC0000041
S11300304AC0000048C0000046C0000044C00000A0
S113004042C0000040C000003EC000003CC00000B0
S11300503AC0000038C0000036C0000034C00000C0
S113006032C0000030C000002EC000002CC00000D0
S11300702AC0000028C0000026C0000024C00000E0
S113008022C0000020C000001EC0000011241FBEBA
S1130090CFEFD0E1DEBFCDBF21E0A6E0B1E001C0EB
S11300A01D92AC30B207E1F711E0A0E0B1E0E2E26A
S11300B0F8E000E00BBF02C007900D92A630B10734
S11300C0D9F702D0ACC39CCF0F931F93CF93DF9388
S11300D0E3D0EC01E7D100E010E068EC70E088ECDC
S11300E090E006D1CE0123D18C859D85080F191F80
S11300F08881837041F0CE0198D006591109083CDB
S113010011055CF303C0083C11053CF360E070E0AA
S113011080E090E0EDD0CE01C5D080E090E0DF91AA
S1130120CF911F910F910895EF92FF920F931F9318
S1130130CF93DF938C017B011616170694F468ECB9
S113014070E088EC90E0D4D0C0E0D0E0C801EFD0FB
S1130150F80184859585C80FD91FCE15DF05B4F342
S113016013C077238CF468E37FEF88E39FEFC0D05C
S1130170C0E0D0E0C801DBD0F80184859585C80FC4
S1130180D91FEC16FD06B4F360E070E080E090E067
S1130190AFD0C801CCD082E390E0CCD1DF91CF9135
S11301A01F910F91FF90EF900895EF92FF920F939C
S11301B01F93CF93DF93EC017B01B9D01E141F046E
S11301C08CF46CE97FEF84E690E092D000E010E0DC
S11301D0CE01ADD08E859F85080F191F0E151F0502
S11301E0BCF312C064E670E08CE99FEF81D0FF207D
S11301F05CF400E010E0CE019AD08E859F85080F54
S1130200191FE016F106BCF360E070E080E090E0B6
S11302106FD0CE018CD082E390E08CD1DF91CF916E
S11302201F910F91FF90EF900895CF93DF93EC010E
S11302307ED0888181FF16C060E070E080E090E0AD
S113024057D06AE67FEFCE016FDF66EA7FEFCE011B
S1130250ACDF6AEF70E0CE0167DF6AE570E0CE01E3
S1130260A4DF17C080FF15C060E070E080E090E07C
S11302703FD06AE67FEFCE0157DF6AE570E0CE013A
S113028094DF6AEF70E0CE014FDF66EA7FEFCE01C4
S11302908CDFDF91CF91089564E370E081E090E01A
S11302A076C1089526C20895EBE9F0E0908195FFA8
S11302B0FDCF80939C0008950F931F93CF93DF93FA
S11302C0082F162FD42FC22F8BE8EEDF112329F02D
S11302D081E0011103C080E001C080E0E5DF8D2FE3
S11302E0E3DF8C2FE1DFDF91CF911F910F91089510
S11302F00F931F93CF93DF93182F092FC62FD72F58
S113030081E9D2DF802FD0DF812FCEDF8D2FCCDFAC
S11303108C2FCADFDF91CF911F910F910895EBE9E4
S1130320F0E080818823ECF780919C000895EF929F
S1130330FF920F931F93CF93DF937C0180919B00D7
S1130340882344F4ACE9B0E0EBE9F0E08C918081DF
S11303508823E4F38EE8A8DF86E0A6DFE7018701BF
S11303600C5C1F4FDCDF8993C017D107D9F7F70165
S1130370848590E0982F88272585820F911D958785
S11303808487868590E0982F88272785820F911D82
S113039097878687818990E0982F88272289820F02
S11303A0911D928B818B838990E0982F88272489D3
S11303B0820F911D948B838B868990E0982F8827D8
S11303C02789820F911D978B868B808D90E0982FC3
S11303D08827218D820F911D918F808F828D90E0CF
S11303E0982F8827238D820F911D938F828F848D60
S11303F090E0982F8827258D820F911D958F848FEB
S1130400868D90E0982F8827278D820F911D978FD6
S1130410868F80A190E0982F882721A1820F911DBB
S113042091A380A382A190E0982F882723A1820F13
S1130430911D93A382A382A590E021A530E0322FE1
S11304402227280F391F36A325A320A930E0322FF5
S11304502227820F931F95A784A782A990E0982F43
S1130460882723A9820F911D97A786A784A990E0C6
S1130470982F882725A9820F911D91AB80AB86A95F
S113048090E0982F882727A9820F911D93AB82AB08
S11304908FE090E04FD0DF91CF911F910F91FF90AB
S11304A0EF9008950F931F93CF93DF93EC0109E925
S11304B010E080E1F801808388E180939A0086E06F
S11304C080939D0080E8F0DE81E8EEDE88E0ECDEDB
S11304D084E690E02FD081E2F801808384E8E4DEB2
S11304E02FEF47E061E081E0E7DECE0120DFCE01BF
S11304F01EDFDF91CF911F910F9108951092070194
S113050010920601811106C08BE085BD87B7806813
S113051087BF07C0813029F489E085BD87B780682B
S113052087BF7894089587B78F7787BF85B58F770E
S113053085BD0895CF93DF93EC018AEF83BD1092BC
S113054007011092060180E0D9DF20910601309165
S113055007012C173D07C8F3E6DFDF91CF9108951B
S11305601F920F920FB60F9211248F939F93809135
S1130570060190910701019690930701809306016B
S11305809F918F910F900FBE0F901F9018950F930E
S11305901F93CF93DF93869F8001879F100D969FB3
S11305A0100D1124C8010DD0EC01009721F0A80111
S11305B060E070E02DD1CE01DF91CF911F910F91BA
S11305C00895CF93DF938230910510F482E090E098
S11305D0E0910A01F0910B0120E030E0A0E0B0E0EE
S11305E0309739F14081518148175907B8F04817BD
S11305F0590771F482819381109729F013969C9383
S11306008E9312972CC090930B0180930A0127C0FC
S11306102115310531F04217530718F0A901DB0108
S113062001C0EF019A01BD01DF010280F381E02DD9
S1130630D7CF21153105F9F0281B390B24303105AA
S113064080F48A819B816115710521F0FB019383FC
S1130650828304C090930B0180930A01FE013296B9
S113066044C0FE01E20FF31F81939193225031099C
S1130670398328833AC02091080130910901232B42
S113068041F4209102013091030130930901209338
S1130690080120910001309101012115310541F437
S11306A02DB73EB74091040150910501241B350B31
S11306B0E0910801F0910901E217F307A0F42E1B61
S11306C03F0B2817390778F0AC014E5F5F4F2417B2
S11306D0350748F04E0F5F1F5093090140930801FE
S11306E08193919302C0E0E0F0E0CF01DF91CF91DC
S11306F00895CF93DF93009709F487C0FC013297E4
S113070013821282C0910A01D0910B01209781F4C7
S113071020813181280F391F8091080190910901AE
S11307208217930779F5F0930901E09308016DC0EE
S1130730DE0120E030E0AE17BF0750F412964D9171
S11307405C9113979D014115510509F1DA01F3CF2D
S1130750B383A28340815181840F951F8A179B071D
S113076071F48D919C911197840F951F029691833A
S1130770808312968D919C91139793838283211584
S1130780310529F4F0930B01E0930A013EC0D9012D
S11307901396FC93EE9312974D915D91A40FB51FA0
S11307A0EA17FB0779F480819181840F951F0296E3
S11307B0D90111969C938E938281938113969C9375
S11307C08E931297E0E0F0E08A819B81009719F004
S11307D0FE01EC01F9CFCE01029628813981820F06
S11307E0931F20910801309109012817390769F4F2
S11307F0309729F410920B0110920A0102C013825F
S11308001282D0930901C0930801DF91CF9108951A
S1130810DC0101C06D9341505040E0F70895F89415
S1050820FFCF04
S109082200000C0120009F
S9030000FC
